:020000040000FA
:1000000001288B1307309F00313090000C108501C0
:100010008601A301A4012830B50005210A30A700FC
:100020009421A70B10288A210A30A7009421A70B3E
:1000300016288A210A30A7009421A70B1C288A21A0
:100040000A30A7009421A70B222818210A30A70004
:100050009421A70B28288A210A30A7009421A70BF6
:100060002E288A210A30A7009421A70B34288A2140
:100070000A30A7009421A70B3A282B210A30A700A9
:100080009421A70B40288A210A30A7009421A70BAE
:1000900046288A210A30A7009421A70B4C288A21E0
:1000A0000A30A7009421A70B52282830B500A219C6
:1000B0005C28A215A2145E28A211A21022112212FD
:1000C000A212BD230230A8003E210A30A7009421CD
:1000D000A70B67288A210A30A7009421A70B6D2857
:1000E0008A210A30A7009421A70B73288A210A309D
:1000F000A7009421A70B792851210A30A700942149
:10010000A70B7F288A210A30A7009421A70B8528F6
:100110008A210A30A7009421A70B8B288A210A3054
:10012000A7009421A70B9128A80B6428A2189A284D
:1001300064219B2877211430A70042229421A70B29
:100140009E28FF30A0006430A100C6231430A70011
:1001500042229421A70BA928FF30A0006430A100FF
:10016000C6231430A70042229421A70BB428BD2334
:10017000FE20A21AE628FC21272294215522E621FE
:10018000221A5528221DB8280230AC001430A700CE
:100190009421A70BC828FF30A000B430A100C623CB
:1001A0004222AC0BC6280130B4001430A7009421C1
:1001B000A70BD728FF30A000FF30A100C623E621FF
:1001C000221A5528FE20A21AE628D3288316811366
:1001D0001030860000308500831210308600003019
:1001E00085008B150B10000000006300000000006C
:1001F000000083168117831242220B280C1C080072
:100200000C10B50B0800A21608008130C0000130A8
:10021000C1000130C2008430C3000430C400043087
:10022000C5009030C6001030C7001030C80008006C
:100230000030C0000230C1000830C2004030C300AE
:100240004230C4004830C5001030C6001230C7002C
:100250001830C80008008130C0002130C1000930CA
:10026000C2008030C3002030C4000830C500803098
:10027000C6002030C7000830C80008004030C00069
:100280000230C1000830C2001030C3000030C4008A
:100290002030C5000430C6000130C7008030C800DF
:1002A00008008030C0000130C1000430C20020309E
:1002B000C3000030C4001030C5000830C600023052
:1002C000C7004030C80008000230C0000230C10042
:1002D0000230C2000230C3000230C4000230C50048
:1002E0000230C6000230C7000230C80008000130EA
:1002F000C0000130C1000130C2000130C300013034
:10030000C4000130C5000130C6000130C700013013
:10031000C80008000930AB0040308400800C800C1D
:10032000840AAB0B8E29080083160030860030301B
:1003300085008312A4010830AB004030840000081F
:100340000139A500A50CA40C840AAB0B9F29240835
:1003500086000508FE39A50000080139A504251509
:10036000250885000830A900AA01AA0BB529A90B08
:10037000B5290508A500251125088500A401083028
:10038000AB004030840000080239A500A50CA50C84
:10039000A40C840AAB0BC329240886000008A30020
:1003A000230C0139A3000508FE39A304A315230873
:1003B00085000830A900AA01AA0BDC29A90BDC29B9
:1003C0000508A500A51125088500080083168113DE
:1003D000FF3086006F3085008312003085000608EC
:1003E000B100311AF429F7296430B4000800B40BC5
:1003F000080022164222080083168113FF3086006F
:100400002130850083120508AD002D172D122D080F
:1004100085000608AE000508AD00AE092D090139BA
:10042000AD000830AF0040308400800DAE0C800C71
:10043000840AAF0B152A800DAD0C800C8316811732
:1004400083120508AD002D132D08850008004030EB
:1004500084000930AF00801B312A840AAF0B2B2A9D
:1004600008000008803A031D2D2A0000A2183A2A2D
:1004700080143B2A00144222A218402AA214302AD7
:10048000A210302AFF30B2006430B3000508B0007B
:10049000B01730088500B20B4B2AB30B4B2AB013B0
:1004A000300885002830B50008000310A501400C75
:1004B000A50D410CA50D420C250D073A0319612A23
:1004C000682ABD230130C000C100C2002215080007
:1004D0000310A501A601400CA600A60CA50D410C19
:1004E000A600A60CA50D420CA600A60C250D073AE9
:1004F00003197B2A822ABD230230C000C100C2003A
:10050000221508000310A501430CA50D440CA50DF0
:10051000450C250D073A03198E2A952ABD23013073
:10052000C300C400C500221508000310A501A601E0
:10053000430CA600A60CA50D440CA600A60CA50D08
:10054000450CA600A60C250D073A0319A82AAF2AC8
:10055000BD230230C300C400C500221508000310EB
:10056000A501460CA50D470CA50D480C250D073A15
:100570000319BB2AC22ABD230130C600C700C80028
:10058000221508000310A501A601460CA600A60C22
:10059000A50D470CA600A60CA50D480CA600A60CA0
:1005A000250D073A0319D52ADC2ABD230230C600DF
:1005B000C700C800221508000310A501400CA50DB6
:1005C000430CA50D460C250D073A0319E82AEF2A1E
:1005D000BD230130C000C300C6002215080003106F
:1005E000A501A601400CA600A60CA50D430CA60073
:1005F000A60CA50D460CA600A60C250D073A03195E
:10060000022B092BBD230230C000C300C6002215F7
:1006100008000310A501410CA50D440CA50D470CC5
:10062000250D073A0319152B1C2BBD230130C100E2
:10063000C400C700221508000310A501A601410C43
:10064000A600A60CA50D440CA600A60CA50D470CF3
:10065000A600A60C250D073A03192F2B362BBD2318
:100660000230C100C400C700221508000310A50114
:10067000420CA50D450CA50D480C250D073A031994
:10068000422B492BBD230130C200C500C8002215F2
:1006900008000310A501A601420CA600A60CA50D9A
:1006A000450CA600A60CA50D480CA600A60C250D11
:1006B000073A03195C2B632BBD230230C200C5002F
:1006C000C800221508000310A501400CA50D440C1C
:1006D000A50D480C250D073A03196F2B762BBD236A
:1006E0000130C000C400C800221508000310A50195
:1006F000A601400CA600A60CA50D440CA600A60C55
:10070000A50D480CA600A60C250D073A0319892B48
:10071000902BBD230230C000C400C8002215080081
:100720000310A501420CA50D440CA50D460C250D8A
:10073000073A03199C2BA32BBD230130C200C40030
:10074000C600221508000310A501A601420CA60050
:10075000A60CA50D440CA600A60CA50D460CA600E3
:10076000A60C250D073A0319B62BBC2BBD2302306E
:10077000C200C400C600221508000930A70040309E
:1007800084008001840AA70BC12B0800A00BC62B94
:06079000A10BC62B0800BE
:02400E0030215F
:00000001FF
